:020000040800F2
:1000000028040020D5000008650B000871090008CD
:1000100000000000000000000000000000000000E0
:10002000000000000000000000000000AF0B00080E
:100030000000000000000000AD0B0008B10B00083C
:10004000E7000008E7000008E7000008E7000008F4
:10005000E7000008E7000008E7000008A901000821
:10006000E7000008E7000008E7000008E7000008D4
:10007000E7000008E7000008E7000008550C00084A
:10008000E7000008E7000008E7000008E7000008B4
:10009000E7000008E7000008E7000008E7000008A4
:1000A000E7000008E7000008E7000008E700000894
:1000B000E7000008BD0C0008E7000008E7000008A2
:1000C0000348854600F03CF800480047B90F000897
:1000D000280400200448804704480047FEE7FEE764
:1000E000FEE7FEE7FEE7FEE7F90B0008C1000008A7
:1000F00030B50B46014600202022012409E00D46C0
:10010000D5409D4205D31D469540491B2546954047
:1001100040191546521E002DF1DC30BDD2B201E06F
:100120000270401C491EFBD270470022F6E710B552
:1001300013460A4604461946FFF7F0FF204610BD55
:10014000064C0125064E05E0E36807CC2B430C3C2A
:1001500098471034B442F7D3FFF7B6FF8C1200086B
:10016000AC1200080E48416901225204114341615A
:10017000C16942041143C1610920C006026803211C
:1001800009020A430260C2688A43C26005480168E6
:100190003822114301600168012211430160704758
:1001A0000010024000740040F8B53E4D68693E49B9
:1001B00043063E4A3E483F4C21D50B69096913402E
:1001C0004027394059405E000E43E1688900891993
:1001D000890040586178002901D1002809DB617845
:1001E000FF2901D1002804DC022804D06178081816
:1001F0006070E66049E030A001F004F8F9E76B694F
:10020000324F1E06304B21D51A6909693A408027C2
:100210003940514056000E432169890089198900EF
:100220004058A178002901D1002809DBA178FF29D5
:1002300001D1002804DC022804D0A1780818A0709D
:10024000266122E022A000F0DDFFF9E76E69F605E5
:100250001ED51B6909691340394059405E000E43A1
:1002600061698900891989004058E178002901D124
:10027000002809DBE178FF2901D1002804DC0228ED
:100280000CD0E1780818E0706661686938436861ED
:10029000792000F0ADFF0120A060F8BD10A000F0B3
:1002A000B1FFF1E70004014000080048000200002F
:1002B0003C12000800000020656E635F315F6572CC
:1002C000726F720A00000000000000480001000088
:1002D000656E635F355F6572726F720A00000000C1
:1002E000656E635F365F6572726F720A00000000B0
:1002F00001480068704700001C00002002480168A7
:10030000491C0160704700001C00002010B5064821
:100310000168102211430160002000F007F800F08E
:1003200017F8002010BD00000020024010B5044660
:1003300000F0D0F87D21C900FFF7DAFE00F000FBE5
:1003400000222146501E00F017F8002010BD0000CA
:1003500008B5084881690122114381618169114012
:100360000091C26901040A43C261C069084000905B
:1003700008BD00000010024010B500F0F5FB10BDF4
:10038000F8B505464E480E460068C007C00FB0429B
:100390000AD24B48016849084900314301600068AE
:1003A000C007C00FB04270D12878464C800705D5F1
:1003B0006068F0218843A968084360602878C00716
:1003C00053D06868012817D0022818D0032819D004
:1003D00021688907002958DA616889088900014382
:1003E0006160FFF785FF69680746012913D002297C
:1003F0001DD0032927D034E021688903EAE721686A
:100400008901E7E7616BC903E4E7FFF771FFC11BEF
:100410002D48814223D860680007800F0128F4D15D
:1004200023E0FFF765FFC11B2748814217D86068AA
:100430000007800F0228F4D117E0FFF759FFC11B16
:10044000214881420BD860680007800F0328F4D14F
:100450000BE0FFF74DFFC11B1B48814201D9032070
:10046000F8BD60680007800FF3D115480168C9071F
:10047000C90FB1420BD901684908490031430160F5
:100480000068C007C00FB04201D00120F8BD287835
:10049000400706D56068072109028843E9680843D8
:1004A000606000F01DF86168084A0906090F515C98
:1004B000C840074908600020FFF738FF0020F8BD5A
:1004C0000020024000100240881300007C12000847
:1004D0002000002001480068704700002000002034
:1004E00030B516A30FCB89B06C460FC417A30FCB42
:1004F0000FC41A494A680C20144604401848042CBA
:1005000005D0184B082C04D00C2C00D1184609B08B
:1005100030BD9402240F6D462C5DC96A04AD0907F5
:10052000090FD203695C920F022A02D0032A00D17C
:100530001846FFF7DDFD6043E9E70000020304050C
:10054000060708090A0B0C0D0E0F10100102030418
:1005500005060708090A0B0C0D0E0F1000100240CB
:1005600000127A00006CDC02FEB504460078F04E02
:10057000F04DC00748D068680007800F01281FD0E1
:1005800068680007800F022804D16868C003800FE4
:10059000022815D06168012919D0012080040029A2
:1005A00001D0052917D02968B14329602968814302
:1005B0002960606800281BD0FFF79AFE074613E009
:1005C0002868800320D56068002876D01CE0286861
:1005D00030432860EDE7296801432960F7E7FFF71A
:1005E00087FEC01B642869D828688003F7D50BE014
:1005F000FFF77EFE074604E0FFF77AFEC01B642883
:10060000F1D828688003F7D4207880073ED5686841
:100610000007800F14D068680007800F022804D1FB
:100620006868C003800F01280AD0E06800282868A5
:100630001DD0012108432860FFF75AFE07460BE052
:10064000286880070BD5E068012836D107E0FFF75E
:100650004FFEC01B0228C6D828688007F7D5286837
:10066000F82188432169C900084328600EE040084A
:1006700040002860FFF73CFE074604E0FFF738FE25
:10068000C01B0228AFD828688007F7D4207800075D
:1006900024D5E0690028686A11D001210843686206
:1006A000FFF726FE074604E0FFF722FEC01B0228E4
:1006B00099D8686A8007F7D510E036E1D1E04008A4
:1006C00040006862FFF714FE074604E0FFF710FEE3
:1006D000C01B022887D8686A8007F7D420780427CF
:1006E0004007002861DA00200190E869C00008D4C2
:1006F000E969B8060143E961E96901400120009117
:1007000001908D480168C90511D401688215114313
:100710000160FFF7EDFD009005E0FFF7E9FD0099AE
:10072000401A642897D884480068C005F5D5A068A9
:1007300001280AD0002801D0052811D0286A4008D5
:1007400040002862286AB84302E0286A0121084371
:100750002862A068002812D0FFF7CAFD00900AE0C6
:10076000286A38432862F0E7FFF7C2FD0099411A72
:100770007248814275D8286A8007F5D50DE0FFF7E9
:10078000B7FD009006E0FFF7B3FD0099411A6B48F2
:10079000814266D8286A8007F5D40198002804D0E1
:1007A000E969012000078143E9612078C00635D559
:1007B000606901280CD0401D686B24D03843686301
:1007C000686B400840006863FFF792FD074622E02F
:1007D000686B38436863686B012108436863FFF7FF
:1007E00087FD074604E0FFF783FDC01B022838D8C9
:1007F000686B8007F7D5686BF8218843A169C90049
:10080000084368630AE0B8436863F4E7FFF770FDE4
:10081000C01B022825D8686B8007F7D42078800693
:1008200037D568680007800F032813D06868000771
:10083000800F022804D16868C003800F032809D004
:10084000206A0028686B16D030436863FFF750FDBC
:1008500006460CE0686BC0031BD5206A012864D1F2
:1008600017E05BE0FFF744FD801B022856D8686B59
:10087000C003F7D50DE0B0436863FFF739FD0646C6
:1008800004E0FFF735FD801B022847D8686BC003E2
:10089000F7D4606A002846D069680907890F0229E1
:1008A00043D0012636060228286805D0B0432860C8
:1008B000FFF71EFD044633E0B0432860FFF718FD44
:1008C000074604E0FFF714FDC01B022826D828685D
:1008D0008001F7D4E86A216B000900010843E8624F
:1008E000A16AE06A084369687B22D2039143084306
:1008F0006860286830432860FFF7FAFC044604E08B
:10090000FFF7F6FC001B022808D828688001F7D5FD
:1009100009E0FFF7EDFC001B022801D90320FEBD12
:1009200028688001F5D40020FEBD0120FEBD000036
:100930000000010000100240007000408813000019
:10094000094910B5401E884201D9012010BD074C4D
:1009500060610321081F00F007F90020A061072053
:100960002061002010BD0000FFFFFF0000E000E05C
:10097000FEE70000F0B5194C0F4661681646184AAC
:1009800011406160400031040843616808436060C1
:1009900060682115084360606068C90008436060B2
:1009A000002517E0A069400702D4A069C006F9D568
:1009B000A069C00605D50BA000F024FC0020C043B0
:1009C000F0BD0AA000F01EFC0AA000F01BFC606A4B
:1009D00078556D1CB542E5DB0020F0BD00580040A5
:1009E00000FC00FF4E41434B0A0000005241434BC4
:1009F0000A0000007265616420627974650A000073
:100A00002548416901229204114341614169520024
:100A100011434161C169D2001143C1611F4801689E
:100A20003122D20511430160016891229205914360
:100A3000016041680522D2021143416042680121F0
:100A400089038A434260426A154B1A404262426AF5
:100A5000144B1A43426242690A43426112480268D7
:100A600001210A430260026802239A43026042683D
:100A70008A43426042690A4342610C480269FF238B
:100A80001B051A4002610269094B1A4302610268A0
:100A90000A43026070470000001002400004004852
:100AA000EB0FFFFF00105000000800480058004006
:100AB000130F4210F0B51E4C0F46616816461D4AD2
:100AC0001140616040003104084361680843606080
:100AD00060682115884360606068C90008436060F1
:100AE00015A000F08FFB00251DE0A069800702D44F
:100AF000A069C006F9D5A069C00605D512A000F00E
:100B000081FB0020C043F0BD11A000F07BFB795DAC
:100B1000A16211A000F076FB785D00F069FB0A206D
:100B200000F066FB6D1CB542DFDB0020F0BD00006D
:100B30000058004000FC00FF7472616E736D6974B0
:100B400074696E670A0000004E41434B0A000000C2
:100B50005441434B0A00000073656E745F62797400
:100B6000653A2000704700008307FF22DB0E9A40A1
:100B70008907090E994000280BDA0007000F083892
:100B8000830808489B001818C36993430B43C3614B
:100B90007047830804489B001B181868904308435B
:100BA0001860704700ED00E000E400E07047704717
:100BB00010B5FFF7A3FB10BD10B592B03421684605
:100BC000FFF7B3FA00240F94022000900D94012047
:100BD0000E94039010200994049010946846FFF737
:100BE000C3FC07200D900E940F94002110940DA8C3
:100BF000FFF7C6FB12B010BD124801680122114375
:100C000001604168104A1140416001680F4A11407B
:100C100001600168012292049143016041683F2212
:100C2000120491434160C16A09090901C162016B63
:100C3000074A11400163416B4908490041630021A3
:100C400081607047001002400CB8FF08FFFFF6FEFD
:100C50002CFEFCFF0B480A498269895C0A4A116133
:100C60008169491C81618169202901DD002181613F
:100C700001208007016949084900016170470000AF
:100C80001C12000800000020007400400121094AE5
:100C9000C80310600848C2690A43C2614F22800439
:100CA00082620722C262C2680A43C26002680A43C3
:100CB0000260704700E100E00010024003488188B4
:100CC0000348017101210170704700002048004075
:100CD0000000002010B51A48C16901229204114396
:100CE000C161184801680522520211430160016880
:100CF000521091430160016A7722520491430162CC
:100D0000016A11221204114301620F4C206840084D
:100D100040002060FFF7DEFBE1214902FFF7E8F920
:100D2000E06020682C21084320600121074A480721
:100D3000106020680843206005A000F063FA10BD31
:100D400000100240000800480048004000E100E0B8
:100D50000A55534152542072756E6E696E670A00CF
:100D600002E008C8121F08C1002AFAD17047704774
:100D7000002001E001C1121F002AFBD170470000D2
:100D8000014600B53039092901D8C8B200BD014675
:100D90004139052901D8373804E001466139052970
:100DA00002D85738C0B200BD02A000F02BFA0820CC
:100DB00000BD0000696E76616C69642063686172D1
:100DC00061637465720A00001CB5411E0A2904D3D0
:100DD0001DA000F017FAFF201CBDCA17920FCC17F8
:100DE0005218A40F920864189200A4088A1AA4004A
:100DF0003023091B1943042802DC2824C9B205E06A
:100E000008280ADC2A24C9B2082809DA16A00068D2
:100E1000019068460171022205E02C24D007010EE2
:100E200068460171012201A92046FFF743FE0F48E1
:100E300081694906FCD5012269462046FFF79AFDE3
:100E4000684600781CBD00004572726F723A2072CD
:100E500065736973746F72206E756D626572206957
:100E60006E76616C69642E0000030000005800403B
:100E700038B5421E0A2A05D315A000F0C3F9002098
:100E8000C04338BDD3179B0FD5179B18AD0F9B08D8
:100E9000AD189B00AD08D31AAD001024521B22439D
:100EA000042801DC282005E0082801DC2A2001E0D4
:100EB0002C20DA016B461A70597002226946FFF73E
:100EC000F9FD0B4881694906FCD5002038BD0000BA
:100ED0004572726F723A207265736973746F722013
:100EE0006E756D62657220696E76616C69642E0044
:100EF0000058004010B51F484169052252041143B3
:100F0000416181690122114381611B480168FF220F
:100F10001203914301600921C9060B680F221204D4
:100F200093430B60C3680324A404A343C360C36852
:100F3000C4012343C360C8689043C860C8680522E1
:100F400012041043C8600D480268FF21C1310A43F2
:100F5000026082680A438260C2680A43C26011214B
:100F600007484902C16002210161064980200860EA
:100F700010BD0000001002400008004800040140BD
:100F80000000014000E100E000B5092801D8303040
:100F900002E00F2802DC3730C0B200BD02A000F032
:100FA00031F9FF2000BD0000696E76616C69642034
:100FB0006865780A0000000008B5FFF7A7F9FFF799
:100FC000FBFDFFF71DFDFFF785FEFFF7CBF8FFF7F1
:100FD0005DFEFFF78FFF5AA000F014F95C4CA1787A
:100FE0000520FFF745FFE1780620FFF741FF59A0F4
:100FF00000F008F90520FFF7E7FE05460620FFF799
:10100000E3FEA1788D4204D1E178884201D157A056
:1010100000E05BA000F0F6F800255EA000F0F2F81A
:1010200020780028FCD025702679304600F0E0F8C2
:10103000722E36D0522E34D03046FFF7A1FE0090EB
:1010400057A000F0DFF820780028FCD02570267922
:10105000304600F0CDF80A2000F0CAF854A000F0A5
:10106000D1F820780028FCD025702779384600F088
:10107000BFF80A2000F0BCF83046FFF781FE0601F9
:101080003846FFF77DFE0643F6B231460098FFF77B
:10109000EFFE009801283ED005283ED006283ED11C
:1010A0003CE047A000F0AEF860780009FFF76CFF65
:1010B00000F09EF860780007000FFFF765FF00F072
:1010C00097F80A2000F094F840A000F09BF8A07870
:1010D0000009FFF759FF00F08BF8A0780007000F18
:1010E000FFF752FF00F084F80A2000F081F83AA0E0
:1010F00000F088F8E0780009FFF746FF00F078F884
:10110000E0780007000FFFF73FFF00F071F80A20BA
:1011100000F06EF803E0667001E0A670E670A0686B
:10112000002800D179E72FA000F06CF8A178052005
:10113000FFF79EFEE1780620FFF79AFEA5606CE7B8
:10114000736574757020636F6D706C6574650A00EB
:101150000000002077726F7465203078383020747A
:101160006F2052444143310A0000000053656C6611
:101170002074657374207061737365640A000000E5
:1011800053656C662074657374206661696C656470
:101190000A0000000A5265736973746F723F0A0097
:1011A0000A56616C7565204D534E3F0A00000000E1
:1011B0000A56616C7565204C534E3F0A00000000D2
:1011C0007265735F315F76616C3A20007265735FA0
:1011D000355F76616C3A20007265735F365F7661C9
:1011E0006C3A20007570646174696E6700000000DD
:1011F0000349CA691206FCD50149203108817047AC
:101200000048004010B50446002302E0FFF7F0FF5D
:101210005B1CE05C0028F9D110BD0000000F1F2FFF
:101220003F4F5F6F7F8E9EAEBECEDEEEFEEEDECE19
:10123000BEAE9E8E7F6F5F4F3F2F1F0F00000000DE
:10124000FFFFFFFF0100000002000000010000009E
:101250000000000002000000FFFFFFFFFFFFFFFF94
:101260000200000000000000010000000200000079
:1012700001000000FFFFFFFF000000000000000071
:10128000000000000102030406070809AC12000870
:101290000000002024000000600D0008D0120008AB
:1012A0002400002004040000700D000800A050007D
:1012B000000000000000000000000000000000002E
:1012C00000000000000000000000000000127A0092
:04000005080000C12E
:00000001FF
